{
  "_format": "hh-sol-artifact-1",
  "contractName": "MyContract",
  "sourceName": "contracts/MyContract.sol",
  "abi": [
    {
      "inputs": [],
      "stateMutability": "nonpayable",
      "type": "constructor"
    },
    {
      "inputs": [
        {
          "internalType": "uint256",
          "name": "_x",
          "type": "uint256"
        },
        {
          "internalType": "uint256",
          "name": "_y",
          "type": "uint256"
        },
        {
          "internalType": "uint256",
          "name": "_z",
          "type": "uint256"
        }
      ],
      "name": "enterCoords",
      "outputs": [],
      "stateMutability": "nonpayable",
      "type": "function"
    },
    {
      "inputs": [],
      "name": "getArrLength",
      "outputs": [
        {
          "internalType": "uint256",
          "name": "",
          "type": "uint256"
        }
      ],
      "stateMutability": "view",
      "type": "function"
    },
    {
      "inputs": [],
      "name": "getSums",
      "outputs": [
        {
          "internalType": "uint256",
          "name": "",
          "type": "uint256"
        },
        {
          "internalType": "uint256",
          "name": "",
          "type": "uint256"
        },
        {
          "internalType": "uint256",
          "name": "",
          "type": "uint256"
        }
      ],
      "stateMutability": "view",
      "type": "function"
    },
    {
      "inputs": [],
      "name": "owner",
      "outputs": [
        {
          "internalType": "address",
          "name": "",
          "type": "address"
        }
      ],
      "stateMutability": "view",
      "type": "function"
    },
    {
      "inputs": [
        {
          "internalType": "uint256",
          "name": "",
          "type": "uint256"
        }
      ],
      "name": "xarr",
      "outputs": [
        {
          "internalType": "uint256",
          "name": "",
          "type": "uint256"
        }
      ],
      "stateMutability": "view",
      "type": "function"
    },
    {
      "inputs": [],
      "name": "xsum",
      "outputs": [
        {
          "internalType": "uint256",
          "name": "",
          "type": "uint256"
        }
      ],
      "stateMutability": "view",
      "type": "function"
    },
    {
      "inputs": [
        {
          "internalType": "uint256",
          "name": "",
          "type": "uint256"
        }
      ],
      "name": "yarr",
      "outputs": [
        {
          "internalType": "uint256",
          "name": "",
          "type": "uint256"
        }
      ],
      "stateMutability": "view",
      "type": "function"
    },
    {
      "inputs": [],
      "name": "ysum",
      "outputs": [
        {
          "internalType": "uint256",
          "name": "",
          "type": "uint256"
        }
      ],
      "stateMutability": "view",
      "type": "function"
    },
    {
      "inputs": [
        {
          "internalType": "uint256",
          "name": "",
          "type": "uint256"
        }
      ],
      "name": "zarr",
      "outputs": [
        {
          "internalType": "uint256",
          "name": "",
          "type": "uint256"
        }
      ],
      "stateMutability": "view",
      "type": "function"
    },
    {
      "inputs": [],
      "name": "zsum",
      "outputs": [
        {
          "internalType": "uint256",
          "name": "",
          "type": "uint256"
        }
      ],
      "stateMutability": "view",
      "type": "function"
    }
  ],
  "bytecode": "0x6080604052348015600f57600080fd5b50336000806101000a81548173ffffffffffffffffffffffffffffffffffffffff021916908373ffffffffffffffffffffffffffffffffffffffff1602179055506000600481905550600060058190555060006006819055506106da806100776000396000f3fe608060405234801561001057600080fd5b506004361061009e5760003560e01c806394df83871161006657806394df83871461016f578063a0b848a71461018f578063d55d8a5d146101ad578063e4176b62146101cb578063fbb97029146101e95761009e565b806327e9b1a0146100a35780634b42758a146100c15780634df65edc146100f15780637e94747b146101215780638da5cb5b14610151575b600080fd5b6100ab610205565b6040516100b8919061043f565b60405180910390f35b6100db60048036038101906100d6919061048b565b610212565b6040516100e8919061043f565b60405180910390f35b61010b6004803603810190610106919061048b565b610236565b604051610118919061043f565b60405180910390f35b61013b6004803603810190610136919061048b565b61025a565b604051610148919061043f565b60405180910390f35b61015961027e565b60405161016691906104f9565b60405180910390f35b6101776102a2565b60405161018693929190610514565b60405180910390f35b6101976102bb565b6040516101a4919061043f565b60405180910390f35b6101b56102c1565b6040516101c2919061043f565b60405180910390f35b6101d36102c7565b6040516101e0919061043f565b60405180910390f35b61020360048036038101906101fe919061054b565b6102cd565b005b6000600180549050905090565b6001818154811061022257600080fd5b906000526020600020016000915090505481565b6003818154811061024657600080fd5b906000526020600020016000915090505481565b6002818154811061026a57600080fd5b906000526020600020016000915090505481565b60008054906101000a900473ffffffffffffffffffffffffffffffffffffffff1681565b6000806000600454600554600654925092509250909192565b60065481565b60045481565b60055481565b60008054906101000a900473ffffffffffffffffffffffffffffffffffffffff1673ffffffffffffffffffffffffffffffffffffffff163373ffffffffffffffffffffffffffffffffffffffff161461035b576040517f08c379a000000000000000000000000000000000000000000000000000000000815260040161035290610621565b60405180910390fd5b60018390806001815401808255809150506001900390600052602060002001600090919091909150556002829080600181540180825580915050600190039060005260206000200160009091909190915055600381908060018154018082558091505060019003906000526020600020016000909190919091505582600460008282546103e89190610670565b9250508190555081600560008282546104019190610670565b92505081905550806006600082825461041a9190610670565b92505081905550505050565b6000819050919050565b61043981610426565b82525050565b60006020820190506104546000830184610430565b92915050565b600080fd5b61046881610426565b811461047357600080fd5b50565b6000813590506104858161045f565b92915050565b6000602082840312156104a1576104a061045a565b5b60006104af84828501610476565b91505092915050565b600073ffffffffffffffffffffffffffffffffffffffff82169050919050565b60006104e3826104b8565b9050919050565b6104f3816104d8565b82525050565b600060208201905061050e60008301846104ea565b92915050565b60006060820190506105296000830186610430565b6105366020830185610430565b6105436040830184610430565b949350505050565b6000806000606084860312156105645761056361045a565b5b600061057286828701610476565b935050602061058386828701610476565b925050604061059486828701610476565b9150509250925092565b600082825260208201905092915050565b7f4f6e6c7920746865206f776e65722063616e20656e74657220636f6f7264696e60008201527f6174657300000000000000000000000000000000000000000000000000000000602082015250565b600061060b60248361059e565b9150610616826105af565b604082019050919050565b6000602082019050818103600083015261063a816105fe565b9050919050565b7f4e487b7100000000000000000000000000000000000000000000000000000000600052601160045260246000fd5b600061067b82610426565b915061068683610426565b925082820190508082111561069e5761069d610641565b5b9291505056fea264697066735822122069fdc1195a63b8e74a665996d0dcf3d429c521764996491d9e9d4a0ca1a93b7864736f6c634300081b0033",
  "linkReferences": {},
  "deployedLinkReferences": {}
}